:100000000C9487000C94AF000C94AF000C94AF00DC
:100010000C94AF000C94AF000C94AF000C94AF00A4
:100020000C94AF000C94AF000C94AF000C94BC0186
:100030000C94AF000C94AF000C94AF000C94AF0084
:100040000C94940B0C94AF000C94CB0A0C94FD0A06
:100050000C94AF000C94AF000C94AF000C94AF0064
:100060000C94AF000C94AF007C03DC03B2039A0342
:10007000FF03FF037203FF037203FF0372037203A4
:100080007203FF037203720307634236B79BD8A75C
:100090001A39685618AEBAAB558C1D3CB7CC5763AD
:1000A000BD6DEDFD753EF6177231BF000000803F5B
:1000B00008000000BE922449123EABAAAA2ABECD77
:1000C000CCCC4C3E00000080BEABAAAAAA3E0000E9
:1000D0000000BF000000803F0000000000084178E1
:1000E000D3BB4387D1133D190E3CC3BD4282AD2B18
:1000F0003E68EC8276BED98FE1A93E4C80EFFFBE10
:1001000001C4FF7F3F0000000000A9052D0B112452
:100110001FBECFEFD8E0DEBFCDBF11E0A0E0B1E061
:10012000EAEDF8E102C005900D92A231B107D9F7CE
:1001300022E0A2E1B1E001C01D92A637B207E1F7CB
:1001400010E0C7E8D0E004C02197FE010E94650CD2
:10015000C538D107C9F70E945B0B0C946B0C0C944B
:1001600000006D3F28F46A3F28F4683F69F402C03C
:100170006E3F50F0DC018D919C91DC01ED91FC9182
:100180000190F081E02D09940895DC01ED91FC913E
:100190000190F081E02D0994DC01ED91FC9101903A
:1001A000F081E02D0994109280008AE08093810014
:1001B0000895CF93DF93529A5A980E94D30078946F
:1001C000C6E1D1E026E042E15AE760E070E08CA1B0
:1001D0009DA10E94660A1EA218A61FA21FA61EA607
:1001E0001DA61CA68FEF9FEF99AB88AB9BAB8AAB8C
:1001F0001092CF011EAA1DAA1FAA18AEEAE4F1E0D0
:100200008081817082608160808388E591E09B833A
:100210008A83DF91CF910895843823E0920724F5F3
:10022000803223E092071CF58C3B22E0920714F504
:10023000883522E09207F4F4843F21E09207ECF441
:10024000803921E09207E4F48C3221E09207DCF45B
:10025000883C9105DCF4843691051CF46DE270E075
:1002600017C068E270E014C061E170E011C062E1A3
:1002700070E00EC064E170E00BC067E170E008C0A0
:100280006BE170E005C06EE170E002C063E270E017
:10029000072E000C880B990B0E949A0620E030E094
:1002A00040EC5FE30E9426070E946206CB0108959E
:1002B000CF92DF92EF92FF92813009F058C070E048
:1002C00041110CC0809112019091130168177907B8
:1002D00009F04DC080916F008D7F47C080916F0005
:1002E0008D7F80936F0070931301609312016953A7
:1002F0007109072E000C880B990B0E949A069B012E
:10030000AC016DE77CE987E89FE30E94930720E05A
:1003100030E04CE553E40E94260720E030E040E066
:100320005FE30E94F6050E9462066B017C01CB012F
:100330000E940C0190931501809314019601DD0C2D
:10034000440B550B60E472E48FE090E00E94460C91
:10035000220F331F3093890020938800109285006C
:100360001092840080916F00826080936F00FF90F4
:10037000EF90DF90CF9008951F920F920FB60F92DB
:1003800011242F933F934F935F936F937F938F939A
:100390009F93AF93BF93EF93FF935A9A8091140169
:1003A000909115010E94DE0B5A98FF91EF91BF9139
:1003B000AF919F918F917F916F915F914F913F91FD
:1003C0002F910F900FBE0F901F901895DC01D696BD
:1003D0008C91D697813F09F4A5C0F0F4803B09F4D5
:1003E00050C060F4803979F1803A09F467C08038F0
:1003F00009F0C5C0ED91FC91119764C0803D09F4EE
:100400006DC020F4803C09F46EC00895803EF1F187
:10041000803F09F475C008958A3FF9F058F4833F8E
:1004200009F498C008F483C0863F09F49CC0883F53
:1004300079F008958C3FD9F0A8F08E3FE9F08F3F16
:1004400009F496C008951296ED91FC9113973AC065
:100450005896ED91FC9159978FC05A96ED91FC9169
:100460005B978AC05C96ED91FC915D9785C05E9626
:10047000ED91FC915F9780C09096ED91FC919197E2
:100480007BC01696ED91FC9117971CC01C96ED91C0
:10049000FC911D97309709F472C0D8966C91D8974B
:1004A0006F7720E8629FB0011124D7968C91D7977F
:1004B0008F77682B7052D5968C9109941496ED9194
:1004C000FC911597309709F45AC0D8964C91D8975B
:1004D000D7966C91D797D5968C9109941A96ED91F1
:1004E000FC911B9704C01896ED91FC9119973097D9
:1004F00009F445C0D7966C91D797D5968C910994FD
:100500001E96ED91FC911F973097C9F1D7966D918A
:100510007C91D8976138710510F060E870E0CD01EA
:10052000C99609945096ED91FC91519717C0529637
:10053000ED91FC915397309711F1D8968C91D89703
:100540008F7720E8829FC0011124D7962C912F77B6
:10055000822B09945496ED91FC915597309779F040
:10056000D7968C9109945696ED91FC91579704C0BB
:100570009296ED91FC919397309709F00994089524
:10058000982F8F7C803849F0903D39F081E0903E83
:1005900031F0903C21F080E0089581E008950895C5
:1005A00087FF0CC09CE0980F923040F0982F9B7F03
:1005B000993F21F0803F18F4807F089580E00895EE
:1005C000EF92FF920F931F93CF93DF93015000316F
:1005D00008F043C067FF41C0613EA0F5D22F142F41
:1005E000C62F7C01DC0194968D919C919597602F8C
:1005F0006C2BDC01ED91FC910190F081E02D0995CF
:10060000F70184A195A1612F6F77DC01ED91FC9139
:100610000190F081E02D09956C2F6F7E603CE9F030
:10062000F70184A195A16D2F6F77DC01ED91FC910D
:100630000190F081E02DDF91CF911F910F91FF90FC
:10064000EF900994683F48F08496DF91CF911F9115
:100650000F91FF90EF900C94B100DF91CF911F911B
:100660000F91FF90EF900895EF92FF920F931F93D9
:10067000CF93DF93EC019CA9292F217090FFBFC07D
:10068000892F8E7F09F4BBC0362F6EA980E8860FB4
:100690008136D8F40DA9031719F021E0311120E0BB
:1006A0009695923031F0933041F0913009F0A7C027
:1006B00006C0222309F4A3C002C02111A0C028ADA6
:1006C0004FA9CE010E94E0029AC0862F90E0FC0163
:1006D000E05FF109E031F10508F091C0EC5CFF4FFB
:1006E0000C94650CCE018496DF91CF911F910F91F0
:1006F000FF90EF900C94B1008E01075C1F4F7801C2
:100700008FA998AD8138910510F080E890E0080F2E
:10071000191F0E151F0509F472C08CA19DA1D701E8
:100720006D917D01DC01ED91FC910190F081E02D56
:100730000995EFCF1FA98CA19DA1DC01ED91FC9142
:100740000190F081E02D63EF09951F77612F70E034
:100750008CA19DA1DF91CF911F910F91FF90EF9000
:100760000C94CC0008ADB0E80B9F800111248FA938
:10077000082B8CA19DA1DC01ED91FC910190F081F1
:10078000E02D62EF0995B8016F7777278CA19DA1C5
:100790000E94C500B801660F672F661F770B719521
:1007A0006F7777278CA19DA1DF91CF911F910F913A
:1007B000FF90EF900C94C5008FA98770B0E18B9FDC
:1007C000C001112418AD1F70182B8CA19DA1DC0154
:1007D000ED91FC910190F081E02D61EF09958CA1E4
:1007E0009DA1DC01ED91FC910190F081E02D612F44
:1007F000DF91CF911F910F91FF90EF900994DF91BE
:10080000CF911F910F91FF90EF900895EF92FF927B
:100810001F93CF93DF9310913C01113108F093C1E6
:1008200080913A0190913B01DC01ED91FC910084B3
:10083000F185E02D0995892B09F485C180913A0154
:1008400090913B01DC01ED91FC910284F385E02D58
:100850000995EC018B7F893F09F475C180914401B2
:1008600090914501009709F09BC0C0933F01F09023
:100870003D018F2D0E94D0020E94C002882361F0AA
:10088000C7FD0AC0F0923F01C093400181E090E0B3
:100890009093450180934401C0913F018C2F0E94A9
:1008A000D002813F09F44AC020F5803B09F449C0D9
:1008B00050F4803909F445C0803A09F442C08038C8
:1008C00009F0C7C03EC0803DC9F118F4803CB1F1C9
:1008D000C0C0803EB1F1803F09F0BBC020E830E0ED
:1008E000309343012093420110923D0180934F01C8
:1008F0002EC0883F79F030F4833F01F110F1863F3C
:1009000049F0A7C08A3F08F4A4C08D3F18F08E3F7D
:1009100008F49FC080934C0110924B0110924D013E
:1009200010924E0181E08093CF0110924501109208
:1009300044011092430110924201DFC022E030E0F6
:1009400002C023E030E03093430120934201209124
:100950004401309145014091420150914301415081
:10096000510924173507A8F080934C01CF70CF5F51
:10097000C0934B018091400180934D0110924E0134
:1009800010924501109244011092430110924201CD
:1009900025C02F5F3F4F3093450120934401D3C0C2
:1009A000C7FF40C09E0133272D3F310554F42A3F35
:1009B000310564F4273F3105A9F0283F310591F551
:1009C00005C02E5F31092230310560F5C0934C011E
:1009D00010924D0110924E0110924B0181E08093D4
:1009E000CF018BC040914F01403F99F59C012F5F93
:1009F0003F4FFC01EA5EFE4F57EF51AF40934C0171
:100A000020934D0130934E0110924B0181E0809371
:100A1000CF011092450110924401109243011092AF
:100A2000420162C020913F01FC01EA5EFE4F203F7F
:100A3000D9F4C1AFE0904201F090430197012150F9
:100A400031098217930708F452C0D0913F01D03F7B
:100A500069F41092450110924401109243011092E2
:100A6000420110923D016FC0C1A7E4CF8D2F0E94BB
:100A7000D002C82F80934C010E94C002882331F01D
:100A80008D2F8F708F5F80934B0102C010924B01AE
:100A90008091400180934D01B3E0EB16F10419F40D
:100AA0008091410101C080E080934E011092450188
:100AB00010924401109243011092420181E0809310
:100AC000CF01C03B71F038F4C03959F0C03A49F059
:100AD000C03851F406C0C03D21F0C03E11F0C03C0A
:100AE00019F4D0933D0109C010923D0106C0019652
:100AF000909345018093440126C080914C01803938
:100B000021F480914E018823A9F080914C018058F6
:100B10008136A0F480914B01181781F0112371F0F8
:100B2000612F86E191E0DF91CF911F91FF90EF90CF
:100B30000C94340380E880934C01E7CF86E191E088
:100B40000E94E601EDCFDF91CF911F91FF90EF90D2
:100B50000895CF93DF93E6E1F1E080ED91E095A376
:100B600084A316A217A210A615A614A617A616A649
:100B70008FEF9FEF91AB80AB93AB82AB83E0809321
:100B80004A0115AA16AA17AA10AE1092CF0180E842
:100B9000AFE4B1E0ED0119928A95E9F71182108274
:100BA0001382128215821482178216821186108691
:100BB000138612861586148617861686118A108A61
:100BC000138A128A158A148A178A168A118E108E31
:100BD000138E128E158E148E178E168E11A210A2E1
:100BE00013A212A2DF91CF9108955058BB27AA27D4
:100BF0000E940D060C94EC060E94DE0638F00E945E
:100C0000E50620F039F49F3F19F426F40C94DB0636
:100C10000EF4E095E7FB0C94D506E92F0E94FD0643
:100C200058F3BA17620773078407950720F079F421
:100C3000A6F50C941F070EF4E0950B2EBA2FA02DED
:100C40000B01B90190010C01CA01A0011124FF2779
:100C5000591B99F0593F50F4503E68F11A16F04074
:100C6000A22F232F342F4427585FF3CF4695379573
:100C70002795A795F0405395C9F77EF41F16BA0B38
:100C8000620B730B840BBAF09150A1F0FF0FBB1FE6
:100C9000661F771F881FC2F70EC0BA0F621F731F2F
:100CA000841F48F4879577956795B795F7959E3F8C
:100CB00008F0B0CF9395880F08F09927EE0F97951D
:100CC000879508950E9469066894B1110C942007D5
:100CD00008950E94050788F09F5798F0B92F99272B
:100CE000B751B0F0E1F0660F771F881F991F1AF017
:100CF000BA95C9F714C0B13091F00E941F07B1E056
:100D000008950C941F07672F782F8827B85F39F054
:100D1000B93FCCF3869577956795B395D9F73EF4AF
:100D200090958095709561957F4F8F4F9F4F089557
:100D3000E89409C097FB3EF4909580957095619575
:100D40007F4F8F4F9F4F9923A9F0F92F96E9BB272B
:100D50009395F695879577956795B795F111F8CFA7
:100D6000FAF4BB0F11F460FF1BC06F5F7F4F8F4F12
:100D70009F4F16C0882311F096E911C0772321F008
:100D80009EE8872F762F05C0662371F096E8862FA0
:100D900070E060E02AF09A95660F771F881FDAF7F7
:100DA000880F9695879597F9089597F99F6780E83A
:100DB00070E060E008959FEF80EC089500240A94AD
:100DC0001616170618060906089500240A94121626
:100DD0001306140605060895092E0394000C11F459
:100DE000882352F0BB0F40F4BF2B11F460FF04C006
:100DF0006F5F7F4F8F4F9F4F089557FD9058440F5F
:100E0000551F59F05F3F71F04795880F97FB991F69
:100E100061F09F3F79F08795089512161306140626
:100E2000551FF2CF4695F1DF08C0161617061806B3
:100E3000991FF1CF86957105610508940895E8948E
:100E4000BB2766277727CB0197F908950E943907BA
:100E50000C94EC060E94DE0638F00E94E50620F0B5
:100E6000952311F00C94D5060C94DB0611240C94F8
:100E700020070E94FD0670F3959FC1F3950F50E087
:100E8000551F629FF001729FBB27F00DB11D639F3C
:100E9000AA27F00DB11DAA1F649F6627B00DA11DE2
:100EA000661F829F2227B00DA11D621F739FB00D88
:100EB000A11D621F839FA00D611D221F749F3327F8
:100EC000A00D611D231F849F600D211D822F762F91
:100ED0006A2F11249F5750409AF0F1F088234AF06E
:100EE000EE0FFF1FBB1F661F771F881F91505040DA
:100EF000A9F79E3F510580F00C94D5060C9420076D
:100F00005F3FE4F3983ED4F3869577956795B79560
:100F1000F795E7959F5FC1F7FE2B880F911D96957A
:100F2000879597F90895FA01EE0FFF1F3096210576
:100F30003105A1F16115710561F48038BFE39B07AC
:100F400049F168949038810561F08038BFEF9B07C4
:100F500041F099234AF5FF3FE1053105210519F1DB
:100F6000E8940894E795D901AA2329F4AB2FBE2F62
:100F7000F85FD0F310C0FF5F70F4A695E0F7F73983
:100F800050F019F0FF3A38F49F779F930DD00F90EF
:100F900007FC9058089546F00C94DB0660E070E082
:100FA00080E89FE308954FE79F775F934F933F93C8
:100FB0002F930E948E082F913F914F915F910E9435
:100FC00026070C94EB0729F416F00C94D5060C9424
:100FD0001F070C94DB060E940507A8F39638A0F7BC
:100FE00007F80F92E8942BE33AEA48EB5FE70E9498
:100FF0003C070F920F920F924DB75EB70F920E946F
:10100000D608E8E8F0E00E941D084F915F91EF914B
:10101000FF91E595EE1FFF1F49F0FE57E06844275A
:10102000EE0F441FFA95E1F74195550B0E945008C9
:101030000F9007FE0C9444080895DF93CF931F93FD
:101040000F93FF92EF92DF927B018C01689406C0B0
:10105000DA2EEF010E943907FE01E894A59125914F
:10106000359145915591A6F3EF010E940D06FE01C1
:101070009701A801DA9469F7DF90EF90FF900F9144
:101080001F91CF91DF9108959B01AC0160E070E06A
:1010900080E89FE30C940A090C94D5060C947C0913
:1010A0000E940507D8F39923C9F3940F511DA3F3A8
:1010B0009150504094F059F0882332F0660F771F1A
:1010C000881F91505040C1F79E3F51052CF7880F63
:1010D000911D9695879597F908955F3FACF0983EDE
:1010E0009CF0BB27869577956795B79508F4B16016
:1010F0009395C1F7BB0F58F711F460FFE8CF6F5F0E
:101100007F4F8F4F9F4FE3CF0C94200716F00C9426
:101110007C090C94DB0668940C94D5060E940507A4
:10112000A8F39923C1F3AEF3DF93CF931F930F93EB
:10113000FF92C92FDD2788232AF02197660F771F9A
:10114000881FDAF720E030E040E85FEB9FE3883962
:1011500020F0803E38F021968F770E94F605E0EB74
:10116000F0E004C00E94F605EDEDF0E00E941D08DD
:101170008B01BE01EC01FB2E6F5771097595771F2E
:10118000880B990B0E949A0628E132E741E35FE35E
:101190000E943907AF2D9801AE01FF900F911F916A
:1011A000CF91DF910E940D060C94EC06FA01DC0150
:1011B000AA0FBB1F9B01AC01BF5728F4222733277E
:1011C0004427507820C0B75190F4AB2F00244695A7
:1011D00037952795011CA395D2F3002071F0220FBB
:1011E000331F441FB395DAF30ED00C94F50561302C
:1011F0007105A0E88A07B94630F49B01AC01662767
:10120000772788279078309621F020833183428396
:10121000538308950E941E090C94EC060E94E50673
:1012200058F00E94DE0640F029F45F3F29F00C944C
:10123000D50651110C9420070C94DB060E94FD0684
:1012400068F39923B1F3552391F3951B550BBB27F5
:10125000AA2762177307840738F09F5F5F4F220F3A
:10126000331F441FAA1FA9F335D00E2E3AF0E0E831
:1012700032D091505040E695001CCAF72BD0FE2F7B
:1012800029D0660F771F881FBB1F2617370748070F
:10129000AB07B0E809F0BB0B802DBF01FF279358C7
:1012A0005F4F3AF09E3F510578F00C94D5060C94B0
:1012B00020075F3FE4F3983ED4F3869577956795D2
:1012C000B795F7959F5FC9F7880F911D96958795FC
:1012D00097F90895E1E0660F771F881FBB1F62171B
:1012E00073078407BA0720F0621B730B840BBA0BD9
:1012F000EE1F88F7E09508959F3F31F0915020F45C
:10130000879577956795B795880F911D96958795E1
:1013100097F90895FC01918D228D892F90E0805CD2
:101320009F4F821B91098F7399270895FC01918D1E
:10133000828D981731F0828DE80FF11D858D90E038
:1013400008958FEF9FEF0895FC01918D828D98177E
:1013500061F0828DDF01A80FB11D5D968C91928D99
:101360009F5F9F73928F90E008958FEF9FEF089596
:10137000FC01538D448D252F30E0842F90E0821B9B
:10138000930B541710F0CF9608950197089583E2B8
:101390009BE0892B49F080E090E0892B29F00E94A6
:1013A000230B81110C9400000895FC01848DDF0152
:1013B000A80FB11DA35ABF4F2C91848D90E00196C8
:1013C0008F739927848FA689B7892C93A089B189B7
:1013D0008C91837080648C93938D848D981306C058
:1013E0000288F389E02D80818F7D80830895EF92BC
:1013F000FF920F931F93CF93DF93EC0181E0888FCF
:101400009B8D8C8D981305C0E889F989808185FDB5
:1014100026C0F62E0B8D10E00F5F1F4F0F731127A4
:10142000E02E8C8DE8120CC00FB607FCFACFE889CD
:10143000F989808185FFF5CFCE010E94D509F1CFD2
:101440008B8DFE01E80FF11DE35AFF4FF0829FB72D
:10145000F8940B8FEA89FB89808180620AC09FB76C
:10146000F894EE89FF896083E889F9898081837027
:10147000806480839FBF81E090E0DF91CF911F91D6
:101480000F91FF90EF900895CF93DF93EC01888D3B
:101490008823C9F0EA89FB89808185FD05C0A88978
:1014A000B9898C9186FD0FC00FB607FCF5CF8081FE
:1014B00085FFF2CFA889B9898C9185FFEDCFCE0148
:1014C0000E94D509E7CFDF91CF910895CF92DF92A7
:1014D000EF92FF921F93CF93DF93EC016A017B01A0
:1014E000122FE889F98982E080834115514E610508
:1014F0007105B1F060E079E08DE390E0A70196011D
:101500000E94240CDA01C9010197A109B109B6951D
:10151000A795979587959C01211580E13807A8F03C
:10152000E889F989108260E874E88EE190E0A7010B
:1015300096010E94240CDA01C9010197A109B109A1
:10154000B695A795979587959C01EC85FD85308389
:10155000EE85FF852083188EEC89FD891083EA894A
:10156000FB89808180618083EA89FB898081886032
:101570008083EA89FB89808180688083EA89FB898E
:1015800080818F7D8083DF91CF911F91FF90EF90BD
:10159000DF90CF9008951F920F920FB60F921124F3
:1015A0002F938F939F93EF93FF93E091E001F0913E
:1015B000E1018081E091E601F091E70182FD12C036
:1015C00090818091E9018F5F8F732091EA018217EA
:1015D00051F0E091E901F0E0E053FE4F958F8093E8
:1015E000E90101C08081FF91EF919F918F912F912F
:1015F0000F900FBE0F901F9018951F920F920FB66D
:101600000F9211242F933F934F935F936F937F9388
:101610008F939F93AF93BF93EF93FF9380ED91E0F0
:101620000E94D509FF91EF91BF91AF919F918F914A
:101630007F916F915F914F913F912F910F900FBECE
:101640000F901F90189580ED91E00E948A0921E08B
:10165000892B09F420E0822F0895E0EDF1E0138258
:10166000128288EE93E0A0E0B0E084839583A683A5
:10167000B78384E091E09183808385EC90E0958747
:10168000848784EC90E09787868780EC90E0918B4C
:10169000808B81EC90E0938B828B82EC90E0958B39
:1016A000848B86EC90E0978B868B118E128E138E36
:1016B000148E089508950E94E90B0E945A0B0E940F
:1016C000D900C7ECD9E00E9406042097E1F30E94FC
:1016D000C709F9CFCF92DF92EF92FF920F931F933A
:1016E000CF93DF936C017A018B01C0E0D0E0CE157F
:1016F000DF0581F0D8016D918D01D601ED91FC914E
:101700000190F081E02DC6010995892B11F02196F9
:10171000EECF7E01C701DF91CF911F910F91FF9016
:10172000EF90DF90CF9008951F920F920FB60F9217
:1017300011242F933F938F939F93AF93BF938091E7
:101740006E0290916F02A0917002B091710230917F
:101750006D0223E0230F2D3720F40196A11DB11D4A
:1017600005C026E8230F0296A11DB11D20936D022E
:1017700080936E0290936F02A0937002B0937102F7
:101780008091720290917302A0917402B0917502DF
:101790000196A11DB11D8093720290937302A093D4
:1017A0007402B0937502BF91AF919F918F913F9159
:1017B0002F910F900FBE0F901F90189582309105BA
:1017C00038F0880F991F880F991F05970197F1F737
:1017D0000895789484B5826084BD84B5816084BDA9
:1017E00085B5826085BD85B5816085BDEEE6F0E09A
:1017F000808181608083E1E8F0E0108280818260F6
:101800008083808181608083E0E8F0E08081816076
:101810008083E1EBF0E0808184608083E0EBF0E0A6
:10182000808181608083EAE7F0E08081846080834A
:1018300080818260808380818160808380818068F4
:1018400080831092C1000895A1E21A2EAA1BBB1B2F
:10185000FD010DC0AA1FBB1FEE1FFF1FA217B3077C
:10186000E407F50720F0A21BB30BE40BF50B661F92
:10187000771F881F991F1A9469F760957095809556
:1018800090959B01AC01BD01CF010895052E97FBFA
:101890001EF400940E945D0C57FD07D00E94240C9A
:1018A00007FC03D04EF40C945D0C50954095309598
:1018B00021953F4F4F4F5F4F0895909580957095BC
:1018C00061957F4F8F4F9F4F0895EE0FFF1F05903B
:0A18D000F491E02D0994F894FFCF85
:1018DA0000000000F7096A0BB809440A8A09A4093A
:0218EA0096095D
:00000001FF
