S00D0000426C696E6B2E7372656327
S11300000C9487000C94AF000C94AF000C94D705AB
S11300100C94AF000C94AF000C94AF000C94AF00A0
S11300200C94AF000C94AF000C94AF000C941D061C
S11300300C94AF000C94AF000C94AF000C94AF0080
S11300400C94AF000C94AF000C94F00F0C9422109D
S11300500C94AF000C94AF000C94AF000C94AF0060
S11300600C94AF000C94AF00D60736080C08F407C4
S113007059085908CC075908CC075908CC07CC07AC
S1130080CC075908CC07CC0707634236B79BD8A7DF
S11300901A39685618AEBAAB558C1D3CB7CC5763A9
S11300A0BD6DEDFD753EF6177231BF000000803F57
S11300B008000000BE922449123EABAAAA2ABECD73
S11300C0CCCC4C3E00000080BEABAAAAAA3E0000E5
S11300D00000BF000000803F0000000000084178DD
S11300E0D3BB4387D1133D190E3CC3BD4282AD2B14
S11300F03E68EC8276BED98FE1A93E4C80EFFFBE0C
S113010001C4FF7F3F0000000000AE0A4810112424
S11301101FBECFEFD8E0DEBFCDBF11E0A0E0B1E05D
S1130120E8EFF1E202C005900D92AE3FB107D9F7B6
S113013023E0AEEFB1E001C01D92AD36B207E1F7A6
S113014010E0C7E8D0E004C02197FE010E94F4103B
S1130150C538D107C9F70E9460080C94FA100C94B2
S113016000006D3F28F46A3F28F4683F69F402C038
S11301706E3F50F0DC018D919C91DC01ED91FC917E
S11301800190F081E02D09940895DC01ED91FC913A
S11301900190F081E02D0994DC01ED91FC91019036
S11301A0F081E02D0994611102C0459801C0459A7F
S11301B098B1907F282F22952F70922B98B995E0B3
S11301C09A95F1F70000449A95E09A95F1F70000AA
S11301D0449890EF9A95F1F798B1907F282F2F705B
S11301E0922B98B995E09A95F1F70000449A95E01E
S11301F09A95F1F70000449890EF9A95F1F7611100
S113020008C0843030F48FE39FE10197F1F700C018
S113021000000895459844982FEF89EF90E021500D
S113022080409040E1F700C0000088B1807F836087
S113023088B925E02A95F1F70000449A85E08A956B
S1130240F1F70000449890EF9A95F1F78FE19EE45E
S11302500197F1F700C0000095E09A95F1F70000CE
S1130260449A25E02A95F1F70000449880EF8A9596
S1130270F1F78FE193E00197F1F700C0000095E0FA
S11302809A95F1F70000449A25E02A95F1F70000C9
S1130290449880EF8A95F1F788B1807F826088B9AD
S11302A095E09A95F1F70000449A25E02A95F1F734
S11302B00000449880EF8A95F1F760E088E20E949C
S11302C0D30060E088E00E94D30060E081E00E94F7
S11302D0D30060E08CE00E94D30060E080E80C94DE
S11302E0D300CF93DF93EC018991882321F061E05F
S11302F00E94D300F9CFDF91CF910895FB01DB0178
S11303009B012B5F3F4F40E34D93A217B307E1F7E7
S11303102AE030E0B9010E949F10805D8193CB01F7
S11303200097C1F70895CF92DF92EF92FF920F9357
S11303301F93CF93DF93FC01CB01BA0168017901CC
S1130340EF016096AF01405E5F4FFE0120E2219312
S1130350E417F507E1F720E030E040E851E40E94BB
S1130360CB0CA70196010E946C0B0E94DE0B80E06F
S113037090E02FEF861797071CF429930196FACF84
S1130380DF91CF911F910F91FF90EF90DF90CF906D
S1130390089560E080E80E94D30084EC91E00E941C
S11303A0710160E080EC0E94D3008FEC91E00E9428
S11303B071012FEF85EA9EE0215080409040E1F7E3
S11303C000C0000060E081E00E94D30060E080E8AB
S11303D00E94D30080EE91E00E9471012FEF81EE24
S11303E094E0215080409040E1F700C0000060E0BC
S11303F081E00C94D300CF92DF92EF92FF92CF93DF
S1130400DF93EB0181309105F9F4C090C001D090E5
S1130410C101E090C201F090C3012091BC01309170
S1130420BD014091BE015091BF01C701B6010E94B8
S1130430670B87FF2DC02DEC3CEC4CEC5DE3C70152
S1130440B6010E94FB0A1CC0892B11F5C090C001A3
S1130450D090C101E090C201F090C3012DEC3CECBE
S11304604CEC5DE3C701B6010E94C60C181684F477
S11304702DEC3CEC4CEC5DE3C701B6010E94FA0A9A
S11304806093C0017093C1018093C2019093C30132
S1130490C090BC01D090BD01E090BE01F090BF01BE
S11304A0A70196016091C0017091C1018091C201C0
S11304B09091C3010E94C60C87FD08C0C092C00180
S11304C0D092C101E092C201F092C30120E030E079
S11304D040E251E46091C0017091C1018091C20178
S11304E09091C3010E94CB0C0E94DE0BDC01CB0176
S11304F09093BB018093BA0162E172E00E947E0195
S1130500809113028D878EE28E87809112028F87ED
S1130510DF91CF91FF90EF90DF90CF900895CF932C
S1130520DF93EB012091B8013091B901813091053D
S113053051F48091B6019091B7012817390774F4EA
S1130540265F3F4F07C0892B49F41216130634F473
S11305502A5031093093B9012093B8016EE072E05A
S11305608091B8019091B9010E947E01809110029E
S1130570898380910F028A8380910E028B83DF919D
S1130580CF910895CF92DF92EF92FF92C090BC0179
S1130590D090BD01E090BE01F090BF018130910583
S11305A099F420E030E040E850E4C701B6010E942D
S11305B0670B87FF25C02DEC3CEC4CEC5DE3C701D9
S11305C0B6010E94FB0A14C0892BD1F420E030E06C
S11305D040E05FE3C701B6010E94C60C181684F41C
S11305E02DEC3CEC4CEC5DE3C701B6010E94FA0A29
S11305F06093BC017093BD018093BE019093BF01D1
S1130600C090BC01D090BD01E090BE01F090BF014C
S1130610A70196016091C0017091C1018091C2014E
S11306209091C3010E94C60C87FD0EC0C092C00108
S1130630D092C101E092C201F092C3016EE671E072
S113064082E090E00E94FB0120E030E040E251E4CF
S11306506091BC017091BD018091BE019091BF0178
S11306600E94CB0C0E94DE0BDC01CB019093BB01FA
S11306708093BA0162E172E00E947E0180911302CC
S113068080930F018EE28093100180911202809377
S11306901101FF90EF90DF90CF900895EF92FF92B9
S11306A00F931F93CF93DF93EC0160E081E00E94EE
S11306B0D30060E080E80E94D3007E018E01005FD9
S11306C01F4F61E0F70181917F010E94D300E01682
S11306D0F106B9F760E080EC0E94D300A09661E0D7
S11306E0F80181918F010E94D3000C171D07B9F7FF
S11306F0DF91CF911F910F91FF90EF900895CF92CA
S1130700DF92EF92FF920F931F932091B4013091E7
S1130710B5012130310509F090C01092B501109255
S1130720B4012091FE013091FF012130310509F41B
S11307303FC01CF4232B81F080C02230310509F422
S113074054C02430310509F078C080E090E00E9464
S1130750C20284E091E06FC0A0918E01B0918F013C
S1130760A60FB71F2C91FC01E20FF11D20E220839C
S113077020918E0130918F012F5F3F4F243031053E
S113078029F030938F0120938E0104C010928F01C1
S113079010928E0120918E0130918F01FB01E20FA6
S11307A0F31F2081FC01E20FF11D2EE3208343C0DF
S11307B06EE671E080E090E00E94FB010091BC01D4
S11307C01091BD012091BE013091BF014091C00143
S11307D05091C1016091C2017091C3018EE691E014
S11307E00E9493018EE691E026C06AE471E080E005
S11307F090E00E948F026091B6017091B701072EBC
S1130800000C880B990B0E94160C6B017C01609103
S1130810B8017091B901072E000C880B990B0E9446
S1130820160CAB01BC01970186018AE491E00E9499
S113083093018AE491E00E944E03209100023091DA
S113084001022130310509F0DAC010920102109240
S113085000028091FE019091FF018130910509F41D
S113086084C01CF4892B59F0CAC08230910509F464
S113087099C0049709F0C3C081E090E0BAC08091A8
S11308808E0190918F01892BE1F43093FF01209325
S1130890FE010091BC011091BD012091BE01309177
S11308A0BF014091C0015091C1016091C20170919A
S11308B0C3018EE691E00E9493018EE691E00E94CE
S11308C04E0380918E0190918F01019771F582E022
S11308D090E09093FF018093FE016091B6017091C6
S11308E0B701072E000C880B990B0E94160C6B01A4
S11308F07C016091B8017091B901072E000C880B3E
S1130900990B0E94160CAB01BC01970186018AE485
S113091091E00E9493016AE471E082E090E00E9419
S1130920FB018AE491E00E944E0380918E01909134
S11309308F01029751F483E090E09093FF0180933C
S1130940FE0188E291E00E944E0380918E01909115
S11309508F01039709F053C084E090E09093FF0166
S11309608093FE0182E090E044C06EE671E081E095
S113097090E00E94FB010091BC011091BD01209107
S1130980BE013091BF014091C0015091C1016091FD
S1130990C2017091C3018EE691E00E9493018EE63C
S11309A091E02BC06AE471E081E090E00E948F0244
S11309B06091B6017091B701072E000C880B990B5A
S11309C00E94160C6B017C016091B8017091B90111
S11309D0072E000C880B990B0E94160CAB01BC016E
S11309E0970186018AE491E00E9493018AE491E0F0
S11309F004C00E94C20284E091E00E944E038091F0
S1130A00020290910302019711F5109203021092D1
S1130A1002028091FE019091FF018230910549F01C
S1130A201CF4019731F013C08330910511F0049741
S1130A3071F41092FF011092FE0184E991E01F917C
S1130A400F91FF90EF90DF90CF900C944E031F9185
S1130A500F91FF90EF90DF90CF9008958C3B22E0B0
S1130A609207E4F4883522E09207DCF4843F21E025
S1130A709207D4F4803921E09207CCF48C3221E03F
S1130A809207C4F4883C9105C4F4843691051CF49F
S1130A906DE270E014C068E270E011C06AE070E0DA
S1130AA00EC064E170E00BC067E170E008C06BE168
S1130AB070E005C06EE170E002C063E270E0072EF2
S1130AC0000C880B990B0E94160C2091C0013091E8
S1130AD0C1014091C2015091C3010E94CB0C0E94FC
S1130AE0DE0BCB010895CF92DF92EF92FF9281301B
S1130AF009F058C070E041110CC080910A02909135
S1130B000B026817790709F04DC080916F008D7F43
S1130B1047C080916F008D7F80936F0070930B02AC
S1130B2060930A0269537109072E000C880B990B14
S1130B300E94160C9B01AC016DE77CE987E89FE3FA
S1130B400E94380D20E030E04CE553E40E94CB0CC9
S1130B5020E030E040E05FE30E94FB0A0E94DE0BED
S1130B606B017C01CB010E942E0590930D028093B2
S1130B700C029601DD0C440B550B60E472E48FE02B
S1130B8090E00E94D510220F331F309389002093E8
S1130B908800109285001092840080916F0082601A
S1130BA080936F00FF90EF90DF90CF9008951F9295
S1130BB00F920FB60F9211248F939F931C9906C026
S1130BC08091060290910702892B99F01D991CC00F
S1130BD08091040290910502892BB1F481E090E0A8
S1130BE09093010280930002909305028093040283
S1130BF01DC081E090E09093B5018093B40190937F
S1130C0007028093060212C01B9910C0809108024B
S1130C1090910902892B51F481E090E090930302B2
S1130C208093020290930902809308029F918F910E
S1130C300F900FBE0F901F9018951F920F920FB632
S1130C400F9211242F933F938F939F93289A80E0C0
S1130C5090E020910C0230910D028217930734F436
S1130C6025E02A95F1F700000196F3CF28989F918B
S1130C708F913F912F910F900FBE0F901F90189559
S1130C80DC01D6968C91D697813F09F4A5C0F0F487
S1130C90803B09F450C060F4803979F1803A09F45A
S1130CA067C0803809F0C5C0ED91FC91119764C00C
S1130CB0803D09F46DC020F4803C09F46EC00895B1
S1130CC0803EF1F1803F09F475C008958A3FF9F040
S1130CD058F4833F09F498C008F483C0863F09F4AC
S1130CE09CC0883F79F008958C3FD9F0A8F08E3FDE
S1130CF0E9F08F3F09F496C008951296ED91FC91A6
S1130D0013973AC05896ED91FC9159978FC05A9613
S1130D10ED91FC915B978AC05C96ED91FC915D9797
S1130D2085C05E96ED91FC915F9780C09096ED91A1
S1130D30FC9191977BC01696ED91FC9117971CC07E
S1130D401C96ED91FC911D97309709F472C0D896CA
S1130D506C91D8976F7720E8629FB0011124D796E1
S1130D608C91D7978F77682B7052D5968C91099474
S1130D701496ED91FC911597309709F45AC0D896C2
S1130D804C91D897D7966C91D797D5968C91099416
S1130D901A96ED91FC911B9704C01896ED91FC9165
S1130DA01997309709F445C0D7966C91D797D59683
S1130DB08C9109941E96ED91FC911F973097C9F17F
S1130DC0D7966D917C91D8976138710510F060E8E1
S1130DD070E0CD01C99609945096ED91FC9151971C
S1130DE017C05296ED91FC915397309711F1D89614
S1130DF08C91D8978F7720E8829FC0011124D796D1
S1130E002C912F77822B09945496ED91FC91559750
S1130E10309779F0D7968C9109945696ED91FC9180
S1130E20579704C09296ED91FC919397309709F0EF
S1130E3009940895982F8F7C803849F0903D39F0BB
S1130E4081E0903E31F0903C21F080E0089581E013
S1130E500895089587FF0CC09CE0980F923040F0ED
S1130E60982F9B7F993F21F0803F18F4807F08954D
S1130E7080E00895EF92FF920F931F93CF93DF9337
S1130E800150003108F043C067FF41C0613EA0F546
S1130E90D22F142FC62F7C01DC0194968D919C9146
S1130EA09597602F6C2BDC01ED91FC910190F08102
S1130EB0E02D0995F70184A195A1612F6F77DC01DD
S1130EC0ED91FC910190F081E02D09956C2F6F7EDE
S1130ED0603CE9F0F70184A195A16D2F6F77DC01E7
S1130EE0ED91FC910190F081E02DDF91CF911F9164
S1130EF00F91FF90EF900994683F48F08496DF913A
S1130F00CF911F910F91FF90EF900C94B100DF915E
S1130F10CF911F910F91FF90EF900895EF92FF9260
S1130F200F931F93CF93DF93EC019CA9292F21707A
S1130F3090FFBFC0892F8E7F09F4BBC0362F6EA9E6
S1130F4080E8860F8136D8F40DA9031719F021E043
S1130F50311120E09695923031F0933041F0913088
S1130F6009F0A7C006C0222309F4A3C002C02111BE
S1130F70A0C028AD4FA9CE010E943A079AC0862F7F
S1130F8090E0FC01E05FF109E031F10508F091C067
S1130F90EC5CFF4F0C94F410CE018496DF91CF915A
S1130FA01F910F91FF90EF900C94B1008E01075C9C
S1130FB01F4F78018FA998AD8138910510F080E812
S1130FC090E0080F191F0E151F0509F472C08CA1BB
S1130FD09DA1D7016D917D01DC01ED91FC91019002
S1130FE0F081E02D0995EFCF1FA98CA19DA1DC0113
S1130FF0ED91FC910190F081E02D63EF09951F774D
S1131000612F70E08CA19DA1DF91CF911F910F9171
S1131010FF90EF900C94CC0008ADB0E80B9F8001DA
S113102011248FA9082B8CA19DA1DC01ED91FC91C9
S11310300190F081E02D62EF0995B8016F77772771
S11310408CA19DA10E94C500B801660F672F661F81
S1131050770B71956F7777278CA19DA1DF91CF9145
S11310601F910F91FF90EF900C94C5008FA987708A
S1131070B0E18B9FC001112418AD1F70182B8CA1F7
S11310809DA1DC01ED91FC910190F081E02D61EFD7
S113109009958CA19DA1DC01ED91FC910190F08159
S11310A0E02D612FDF91CF911F910F91FF90EF9071
S11310B00994DF91CF911F910F91FF90EF900895C4
S11310C08FEF87B983E084B98CE385B981E080939D
S11310D0680088E380936B00109280008AE080931C
S11310E081008CE090E390938900809388001092B3
S11310F085001092840080916F00826080936F005D
S1131100789426E042E15AE760E070E080913A0288
S113111090913B020E948B0F10923C0210923E026F
S113112010923D0210924502109244021092430222
S1131130109242028FEF9FEF9093470280934602F2
S113114090934902809348021092CF0210924C026D
S113115010924B0210924D0210924E0280914A025C
S113116081708260816080934A0283E795E0909366
S11311701902809318020E940A010E94C90160E9C1
S113118071E084E991E00E947F036AE471E082E007
S113119090E00E948F026EE671E082E090E00E948F
S11311A0FB0180E8782E9924939497EF692E22E02E
S11311B0222E312C33E0E32EF12C40E8C42ED12C26
S11311C0AA24A394B12C80903C0220E1281508F4B1
S11311D07FC180913A0290913B02DC01ED91FC9138
S11311E00084F185E02D0995892B09F471C1809162
S11311F03A0290913B02DC01ED91FC910284F3856B
S1131200E02D0995EC018B7F893F09F461C1809140
S1131210440290914502009709F096C0C0933F02A2
S113122050903D02852D0E942A070E941A078823A8
S113123051F0C7FD08C050923F02C0934002B092E3
S11312404502A0924402C0913F028C2F0E942A07BB
S1131250813F09F447C010F5803B09F448C050F4BD
S1131260803909F444C0803A09F441C0803809F057
S1131270C2C03DC0803DB1F118F4803C99F1BBC0BF
S1131280803EA9F1803F09F0B6C0D0924302C092DB
S1131290420210923D0280934F022DC0883F79F0A4
S11312A030F4833FF9F018F1863F49F0A4C08A3F37
S11312B008F4A1C08D3F18F08E3F08F49CC08093C1
S11312C04C0210924B0210924D0210924E029092D8
S11312D0CF021092450210924402109243021092DF
S11312E04202DAC0309243022092420204C0F092D9
S11312F04302E0924202209144023091450240911F
S11313004202509143024150510924173507A8F075
S113131080934C02CF70CF5FC0934B028091400208
S113132080934D0210924E02109245021092440294
S1131330109243021092420225C02F5F3F4F309318
S1131340450220934402C4C0C7FF3DC09E01332719
S11313502D3F310554F42A3F310564F4273F31050C
S1131360A1F0283F310579F505C02E5F31092230FF
S1131370310548F5C0934C0210924D0210924E0272
S113138010924B029092CF0287C040914F02403F8F
S113139091F59C012F5F3F4FFC01EA5EFD4F61AE6A
S11313A040934C0220934D0230934E0210924B0214
S11313B09092CF021092450210924402109243027E
S11313C01092420260C020913F02FC01EA5EFD4F90
S11313D0203FE1F4C1AFC0914202D09143029E018B
S11313E0215031098217930708F450C040903F02FE
S11313F0B0EF4B120DC010924502109244021092AD
S113140043021092420210923D0262C0C1A7E3CF90
S1131410842D0E942A07182F80934C020E941A07D9
S1131420882331F0842D8F708F5F80934B0202C02C
S113143010924B028091400280934D02239719F43D
S11314408091410201C080E080934E0210924502D7
S11314501092440210924302109242029092CF02E0
S1131460103B71F038F4103959F0103A49F0103843
S113147051F406C0103D21F0103E11F0103C19F457
S113148040923D0209C010923D0206C0019690931D
S11314904502809344021CC080914C02803929F497
S11314A080914E02882309F451C080914C028058E7
S11314B0813608F04EC080914B02881609F449C069
S11314C0882009F446C0682D86E192E00E948E07C8
S11314D08091FE019091FF0182309105C9F04CF496
S11314E0009789F00197F9F46AE671E08EE691E0DD
S11314F018C08330910589F00497A9F460E071E085
S113150084E091E00EC060E971E084E991E009C0F3
S113151068E471E08AE491E004C064E271E088E286
S113152091E00E947F038FE39CE90197F1F700C0EB
S11315300000109209021092080210920702109201
S1131540060210920502109204023DCE70924C02E3
S1131550ACCF86E192E00E944006B5CFCF93DF93F3
S1131560E6E1F2E080ED92E095A384A316A217A22F
S113157010A615A614A617A616A68FEF9FEF91AB7B
S113158080AB93AB82AB83E080934A0215AA16AA80
S113159017AA10AE1092CF0280E8AFE4B2E0ED01DA
S11315A019928A95E9F711821082138212821582A8
S11315B01482178216821186108613861286158667
S11315C0148617861686118A108A138A128A158A37
S11315D0148A178A168A118E108E138E128E158E07
S11315E0148E178E168E11A210A213A212A2DF91CE
S11315F0CF9108955058BB27AA270E94120B0C9430
S11316008C0C0E947E0C38F00E94850C20F039F47A
S11316109F3F19F426F40C947B0C0EF4E095E7FB41
S11316200C94750CE92F0E949D0C58F3BA176207AD
S113163073078407950720F079F4A6F50C94BF0C82
S11316400EF4E0950B2EBA2FA02D0B01B9019001D9
S11316500C01CA01A0011124FF27591B99F0593F1D
S113166050F4503E68F11A16F040A22F232F342F65
S11316704427585FF3CF469537952795A795F040B3
S11316805395C9F77EF41F16BA0B620B730B840BC8
S1131690BAF09150A1F0FF0FBB1F661F771F881F80
S11316A0C2F70EC0BA0F621F731F841F48F48795D8
S11316B077956795B795F7959E3F08F0B0CF9395CA
S11316C0880F08F09927EE0F9795879508950E9443
S11316D0510C08F481E008950E94800B0C948C0C4A
S11316E00E94850C58F00E947E0C40F029F45F3F64
S11316F029F00C94750C51110C94C00C0C947B0CB7
S11317000E949D0C68F39923B1F3552391F3951B23
S1131710550BBB27AA2762177307840738F09F5F0E
S11317205F4F220F331F441FAA1FA9F335D00E2E7B
S11317303AF0E0E832D091505040E695001CCAF7E8
S11317402BD0FE2F29D0660F771F881FBB1F2617AB
S113175037074807AB07B0E809F0BB0B802DBF0182
S1131760FF2793585F4F3AF09E3F510578F00C9451
S1131770750C0C94C00C5F3FE4F3983ED4F386954B
S113178077956795B795F7959F5FC9F7880F911D72
S11317909695879597F90895E1E0660F771F881F5E
S11317A0BB1F621773078407BA0720F0621B730B11
S11317B0840BBA0BEE1F88F7E09508950E94E50BA1
S11317C06894B1110C94C00C08950E94A50C88F083
S11317D09F5798F0B92F9927B751B0F0E1F0660FF1
S11317E0771F881F991F1AF0BA95C9F714C0B13032
S11317F091F00E94BF0CB1E008950C94BF0C672FC8
S1131800782F8827B85F39F0B93FCCF38695779560
S11318106795B395D9F73EF4909580957095619549
S11318207F4F8F4F9F4F0895E89409C097FB3EF474
S113183090958095709561957F4F8F4F9F4F992319
S1131840A9F0F92F96E9BB279395F6958795779597
S11318506795B795F111F8CFFAF4BB0F11F460FF57
S11318601BC06F5F7F4F8F4F9F4F16C0882311F0AF
S113187096E911C0772321F09EE8872F762F05C0C3
S1131880662371F096E8862F70E060E02AF09A955E
S1131890660F771F881FDAF7880F9695879597F953
S11318A00895990F0008550FAA0BE0E8FEEF1616ED
S11318B01706E807F907C0F012161306E407F50740
S11318C098F0621B730B840B950B39F40A2661F0B4
S11318D0232B242B252B21F408950A2609F4A14057
S11318E0A6958FEF811D811D089597F99F6780E864
S11318F070E060E008959FEF80EC089500240A945E
S11319001616170618060906089500240A941216D6
S11319101306140605060895092E0394000C11F409
S1131920882352F0BB0F40F4BF2B11F460FF04C0B6
S11319306F5F7F4F8F4F9F4F089557FD9058440F0F
S1131940551F59F05F3F71F04795880F97FB991F1A
S113195061F09F3F79F087950895121613061406D7
S1131960551FF2CF4695F1DF08C016161706180664
S1131970991FF1CF86957105610508940895E8943F
S1131980BB2766277727CB0197F908950E94510C4E
S113199008F48FEF08950E94DE0C0C948C0C0E94C6
S11319A07E0C38F00E94850C20F0952311F00C94E5
S11319B0750C0C947B0C11240C94C00C0E949D0C8F
S11319C070F3959FC1F3950F50E0551F629FF0018E
S11319D0729FBB27F00DB11D639FAA27F00DB11DA7
S11319E0AA1F649F6627B00DA11D661F829F222730
S11319F0B00DA11D621F739FB00DA11D621F839FB7
S1131A00A00D611D221F749F3327A00D611D231F8C
S1131A10849F600D211D822F762F6A2F11249F57DA
S1131A2050409AF0F1F088234AF0EE0FFF1FBB1FDD
S1131A30661F771F881F91505040A9F79E3F51059C
S1131A4080F00C94750C0C94C00C5F3FE4F3983E4A
S1131A50D4F3869577956795B795F795E7959F5F46
S1131A60C1F7FE2B880F911D9695879597F90895D8
S1131A70FA01EE0FFF1F309621053105A1F1611522
S1131A80710561F48038BFE39B0749F1689490388D
S1131A90810561F08038BFEF9B0741F099234AF537
S1131AA0FF3FE1053105210519F1E8940894E79514
S1131AB0D901AA2329F4AB2FBE2FF85FD0F310C0AD
S1131AC0FF5F70F4A695E0F7F73950F019F0FF3A8C
S1131AD038F49F779F930DD00F9007FC905808958A
S1131AE046F00C947B0C60E070E080E89FE308957E
S1131AF04FE79F775F934F933F932F930E94330E4B
S1131B002F913F914F915F910E94CB0C0C94900DBB
S1131B1029F416F00C94750C0C94BF0C0C947B0CEB
S1131B200E94A50CA8F39638A0F707F80F92E89442
S1131B302BE33AEA48EB5FE70E94E10C0F920F9225
S1131B400F924DB75EB70F920E947B0EE8E8F0E06B
S1131B500E94C20D4F915F91EF91FF91E595EE1FA9
S1131B60FF1F49F0FE57E0684427EE0F441FFA9523
S1131B70E1F74195550B0E94F50D0F9007FE0C946B
S1131B80E90D0895DF93CF931F930F93FF92EF9284
S1131B90DF927B018C01689406C0DA2EEF010E946B
S1131BA0DE0CFE01E894A59125913591459155915E
S1131BB0A6F3EF010E94120BFE019701A801DA942B
S1131BC069F7DF90EF90FF900F911F91CF91DF9114
S1131BD008959B01AC0160E070E080E89FE30C9401
S1131BE06C0B0C94750C0C94AF0E0E94A50CD8F3DE
S1131BF09923C9F3940F511DA3F39150504094F0CD
S1131C0059F0882332F0660F771F881F9150504097
S1131C10C1F79E3F51052CF7880F911D9695879526
S1131C2097F908955F3FACF0983E9CF0BB278695EA
S1131C3077956795B79508F4B1609395C1F7BB0F95
S1131C4058F711F460FFE8CF6F5F7F4F8F4F9F4FBE
S1131C50E3CF0C94C00C16F00C94AF0E0C947B0CD8
S1131C6068940C94750C0E94A50CA8F39923C1F3F5
S1131C70AEF3DF93CF931F930F93FF92C92FDD270A
S1131C8088232AF02197660F771F881FDAF720E050
S1131C9030E040E85FEB9FE3883920F0803E38F085
S1131CA021968F770E94FB0AE0EBF0E004C00E94CB
S1131CB0FB0AEDEDF0E00E94C20D8B01BE01EC01C8
S1131CC0FB2E6F5771097595771F880B990B0E942E
S1131CD0160C28E132E741E35FE30E94DE0CAF2DEE
S1131CE09801AE01FF900F911F91CF91DF910E9457
S1131CF0120B0C948C0CFA01DC01AA0FBB1F9B0184
S1131D00AC01BF5728F4222733274427507820C03A
S1131D10B75190F4AB2F0024469537952795011CB5
S1131D20A395D2F3002071F0220F331F441FB39503
S1131D30DAF30ED00C94FA0A61307105A0E88A0730
S1131D40B94630F49B01AC01662777278827907841
S1131D50309621F0208331834283538308959F3F3B
S1131D6031F0915020F4879577956795B795880F52
S1131D70911D9695879597F90895FC01918D228D73
S1131D80892F90E0805C9F4F821B91098F73992764
S1131D900895FC01918D828D981731F0828DE80FA2
S1131DA0F11D858D90E008958FEF9FEF0895FC015C
S1131DB0918D828D981761F0828DDF01A80FB11D7E
S1131DC05D968C91928D9F5F9F73928F90E00895A2
S1131DD08FEF9FEF0895FC01538D448D252F30E044
S1131DE0842F90E0821B930B541710F0CF96089524
S1131DF001970895FC01848DDF01A80FB11DA35A3A
S1131E00BF4F2C91848D90E001968F739927848F16
S1131E10A689B7892C93A089B1898C918370806439
S1131E208C93938D848D981306C00288F389E02DDA
S1131E3080818F7D80830895EF92FF920F931F938B
S1131E40CF93DF93EC0181E0888F9B8D8C8D981369
S1131E5005C0E889F989808185FD26C0F62E0B8DA1
S1131E6010E00F5F1F4F0F731127E02E8C8DE812C7
S1131E700CC00FB607FCFACFE889F989808185FF89
S1131E80F5CFCE010E94FA0EF1CF8B8DFE01E80F43
S1131E90F11DE35AFF4FF0829FB7F8940B8FEA8944
S1131EA0FB89808180620AC09FB7F894EE89FF891C
S1131EB06083E889F98980818370806480839FBF0F
S1131EC081E090E0DF91CF911F910F91FF90EF900F
S1131ED00895CF93DF93EC01888D8823C9F0EA89B4
S1131EE0FB89808185FD05C0A889B9898C9186FD0F
S1131EF00FC00FB607FCF5CF808185FFF2CFA8890C
S1131F00B9898C9185FFEDCFCE010E94FA0EE7CFFF
S1131F10DF91CF910895CF92DF92EF92FF921F93BA
S1131F20CF93DF93EC016A017B01122FE889F989D1
S1131F3082E080834115514E61057105B1F060E086
S1131F4079E08DE390E0A70196010E94B310DA01D5
S1131F50C9010197A109B109B695A79597958795E8
S1131F609C01211580E13807A8F0E889F9891082DD
S1131F7060E874E88EE190E0A70196010E94B31036
S1131F80DA01C9010197A109B109B695A7959795F9
S1131F9087959C01EC85FD853083EE85FF85208344
S1131FA0188EEC89FD891083EA89FB898081806120
S1131FB08083EA89FB89808188608083EA89FB8940
S1131FC0808180688083EA89FB8980818F7D80831A
S1131FD0DF91CF911F91FF90EF90DF90CF90089504
S1131FE01F920F920FB60F9211242F938F939F93EA
S1131FF0EF93FF93E091E002F091E1028081E091A0
S1132000E602F091E70282FD12C090818091E9021C
S11320108F5F8F732091EA02821751F0E091E902F9
S1132020F0E0E053FD4F958F8093E90201C0808179
S1132030FF91EF919F918F912F910F900FBE0F9071
S11320401F9018951F920F920FB60F9211242F9381
S11320503F934F935F936F937F938F939F93AF932C
S1132060BF93EF93FF9380ED92E00E94FA0EFF91ED
S1132070EF91BF91AF919F918F917F916F915F91FC
S11320804F913F912F910F900FBE0F901F90189575
S1132090E0EDF2E01382128288EE93E0A0E0B0E07B
S11320A084839583A683B78380EF91E091838083B3
S11320B085EC90E09587848784EC90E09787868709
S11320C080EC90E0918B808B81EC90E0938B828B01
S11320D082EC90E0958B848B86EC90E0978B868BDA
S11320E0118E128E138E148E0895CF92DF92EF927A
S11320F0FF920F931F93CF93DF936C017A018B01AF
S1132100C0E0D0E0CE15DF0581F0D8016D918D01DE
S1132110D601ED91FC910190F081E02DC601099565
S1132120892B11F02196EECF7E01C701DF91CF916B
S11321301F910F91FF90EF90DF90CF900895AA1B0D
S1132140BB1B51E107C0AA1FBB1FA617B70710F09E
S1132150A61BB70B881F991F5A95A9F780959095D0
S1132160BC01CD010895A1E21A2EAA1BBB1BFD01DF
S11321700DC0AA1FBB1FEE1FFF1FA217B307E40762
S1132180F50720F0A21BB30BE40BF50B661F771FBA
S1132190881F991F1A9469F760957095809590959A
S11321A09B01AC01BD01CF010895052E97FB1EF4E0
S11321B000940E94EC1057FD07D00E94B31007FC56
S11321C003D04EF40C94EC10509540953095219525
S11321D03F4F4F4F5F4F089590958095709561954F
S11321E07F4F8F4F9F4F0895EE0FFF1F0590F4917F
S10B21F0E02D0994F894FFCFDF
S11321F8000710172050575F6C696D69743A2020E6
S1132208202020202056657273696F6E20302E338B
S113221830202020000710172042313A2032303075
S1132228487A403530306D532042323A20313030CC
S1132238487A403530306D53000820343430487AB9
S11322482020202050573A312E32202020202020D0
S1132258202020202020202020200007101745358A
S11322682D343430487A202050573A312E372020E4
S1132278202020202020202020202020202003008F
S113228800071017204D49444920202046697865E5
S113229864202020205465737420202053657474AE
S11322A8696E67730100F401DC000100000000405E
S11322B80000803F506169766127732054430033DE
S11322C832385020496E7465727275707465720084
S11322D856657273696F6E20302E3100000000005D
S11122E81C0F7510EB0E690FBD0ED70EC90E3C
S9030000FC
